{"abi":[{"type":"constructor","inputs":[{"name":"_feeAccount","type":"address","internalType":"address"},{"name":"_feePercent","type":"uint256","internalType":"uint256"}],"stateMutability":"nonpayable"},{"type":"function","name":"cancelOrder","inputs":[{"name":"_id","type":"uint256","internalType":"uint256"}],"outputs":[],"stateMutability":"nonpayable"},{"type":"function","name":"depositTokens","inputs":[{"name":"_token","type":"address","internalType":"address"},{"name":"_amount","type":"uint256","internalType":"uint256"}],"outputs":[],"stateMutability":"nonpayable"},{"type":"function","name":"depositedAmount","inputs":[{"name":"_token","type":"address","internalType":"address"},{"name":"_user","type":"address","internalType":"address"}],"outputs":[{"name":"","type":"uint256","internalType":"uint256"}],"stateMutability":"view"},{"type":"function","name":"doesThisOrderCancelled","inputs":[{"name":"_id","type":"uint256","internalType":"uint256"}],"outputs":[{"name":"","type":"bool","internalType":"bool"}],"stateMutability":"view"},{"type":"function","name":"doesThisOrderExcuted","inputs":[{"name":"_id","type":"uint256","internalType":"uint256"}],"outputs":[{"name":"","type":"bool","internalType":"bool"}],"stateMutability":"view"},{"type":"function","name":"fillOrder","inputs":[{"name":"_id","type":"uint256","internalType":"uint256"}],"outputs":[],"stateMutability":"nonpayable"},{"type":"function","name":"makeOrder","inputs":[{"name":"_tokenGet","type":"address","internalType":"address"},{"name":"_amountGet","type":"uint256","internalType":"uint256"},{"name":"_tokenGive","type":"address","internalType":"address"},{"name":"_amountGive","type":"uint256","internalType":"uint256"}],"outputs":[],"stateMutability":"nonpayable"},{"type":"function","name":"withdrawTokens","inputs":[{"name":"_token","type":"address","internalType":"address"},{"name":"_amount","type":"uint256","internalType":"uint256"}],"outputs":[],"stateMutability":"nonpayable"},{"type":"event","name":"Order","inputs":[{"name":"id","type":"uint256","indexed":false,"internalType":"uint256"},{"name":"user","type":"address","indexed":false,"internalType":"address"},{"name":"tokenGet","type":"address","indexed":false,"internalType":"address"},{"name":"amountGet","type":"uint256","indexed":false,"internalType":"uint256"},{"name":"tokenGive","type":"address","indexed":false,"internalType":"address"},{"name":"amountGive","type":"uint256","indexed":false,"internalType":"uint256"},{"name":"timestamp","type":"uint256","indexed":false,"internalType":"uint256"}],"anonymous":false},{"type":"event","name":"OrderCancelled","inputs":[{"name":"id","type":"uint256","indexed":false,"internalType":"uint256"},{"name":"user","type":"address","indexed":false,"internalType":"address"},{"name":"tokenGet","type":"address","indexed":false,"internalType":"address"},{"name":"amountGet","type":"uint256","indexed":false,"internalType":"uint256"},{"name":"tokenGive","type":"address","indexed":false,"internalType":"address"},{"name":"amountGive","type":"uint256","indexed":false,"internalType":"uint256"},{"name":"timestamp","type":"uint256","indexed":false,"internalType":"uint256"}],"anonymous":false},{"type":"event","name":"TradeSuccessfull","inputs":[{"name":"id","type":"uint256","indexed":false,"internalType":"uint256"},{"name":"seller","type":"address","indexed":false,"internalType":"address"},{"name":"buyer","type":"address","indexed":false,"internalType":"address"},{"name":"tokenGet","type":"address","indexed":false,"internalType":"address"},{"name":"amountGet","type":"uint256","indexed":false,"internalType":"uint256"},{"name":"tokenGive","type":"address","indexed":false,"internalType":"address"},{"name":"amountGive","type":"uint256","indexed":false,"internalType":"uint256"},{"name":"timestamp","type":"uint256","indexed":false,"internalType":"uint256"}],"anonymous":false},{"type":"error","name":"Exchange__BalanceNotSufficient","inputs":[{"name":"_userBalance","type":"uint256","internalType":"uint256"}]},{"type":"error","name":"Exchange__ExceedingMaximumAmount","inputs":[]},{"type":"error","name":"Exchange__InvalidAmount","inputs":[{"name":"_amount","type":"uint256","internalType":"uint256"}]},{"type":"error","name":"Exchange__InvalidOrderNumber","inputs":[]},{"type":"error","name":"Exchange__InvalidToken","inputs":[]},{"type":"error","name":"Exchange__NotOwnerOfThisOrder","inputs":[]},{"type":"error","name":"Exchange__OrderWasCancelled","inputs":[]},{"type":"error","name":"Exchange__OrderWasExcuted","inputs":[]}],"bytecode":{"object":"0x608060405234801561001057600080fd5b50604051610ca9380380610ca983398101604081905261002f91610058565b600080546001600160a01b0319166001600160a01b039390931692909217909155600155610092565b6000806040838503121561006b57600080fd5b82516001600160a01b038116811461008257600080fd5b6020939093015192949293505050565b610c08806100a16000396000f3fe608060405234801561001057600080fd5b50600436106100885760003560e01c8063849febf21161005b578063849febf2146100db5780639a5c90aa14610113578063c988529514610126578063e0c32ec41461014957600080fd5b806306b091f91461008d578063514fcac7146100a257806366168bd7146100b557806367b830ad146100c8575b600080fd5b6100a061009b366004610a3c565b61016a565b005b6100a06100b0366004610a66565b610288565b6100a06100c3366004610a3c565b6103ae565b6100a06100d6366004610a66565b610472565b6100fe6100e9366004610a66565b60009081526005602052604090205460ff1690565b60405190151581526020015b60405180910390f35b6100a0610121366004610a7f565b610822565b6100fe610134366004610a66565b60009081526004602052604090205460ff1690565b61015c610157366004610ac3565b610957565b60405190815260200161010a565b6001600160a01b0382166101915760405163a0089a9760e01b815260040160405180910390fd5b6001600160a01b03821660009081526002602090815260408083203384529091529020548111156101d5576040516311ed860f60e11b815260040160405180910390fd5b6001600160a01b03821660009081526002602090815260408083203380855292528220805491928492610209908490610b0c565b909155505060405163a9059cbb60e01b81526001600160a01b0382811660048301526024820184905284169063a9059cbb906044015b6020604051808303816000875af115801561025e573d6000803e3d6000fd5b505050506040513d601f19601f820116820180604052508101906102829190610b1f565b50505050565b6006548111156102ab5760405163706ecaf760e11b815260040160405180910390fd5b600081815260036020818152604092839020835160e0810185528154815260018201546001600160a01b03908116938201849052600283015481169582019590955292810154606084015260048101549093166080830152600583015460a083015260069092015460c08201529033146103385760405163525614b960e01b815260040160405180910390fd5b600082815260046020908152604091829020805460ff19166001179055825190830151838301516060850151608086015160a087015195517f0fc466a139855d3b21f9eb9dfdadd9dfdaf9b58bd400756b26083b7077055e27966103a29695949392914290610b48565b60405180910390a15050565b6001600160a01b0382166103d55760405163a0089a9760e01b815260040160405180910390fd5b806000036103fe576040516351f4005760e11b8152600481018290526024015b60405180910390fd5b6001600160a01b03821660009081526002602090815260408083203380855292528220805491928492610432908490610b86565b90915550506040516323b872dd60e01b81526001600160a01b038281166004830152306024830152604482018490528416906323b872dd9060640161023f565b6006548111156104955760405163706ecaf760e11b815260040160405180910390fd5b60008181526004602052604090205460ff16156104c557604051631e63384360e01b815260040160405180910390fd5b60008181526005602052604090205460ff16156104f5576040516361920a6f60e11b815260040160405180910390fd5b6000818152600360208181526040808420815160e081018352815481526001808301546001600160a01b03908116958301959095526002830154851693820193909352938101546060850181905260048201549093166080850152600581015460a08501526006015460c0840152549192916064916105749190610b99565b61057e9190610bb0565b6040808401516001600160a01b0316600090815260026020908152828220338352905220546060840151919250906105b7908390610b86565b1115610603576040828101516001600160a01b03166000908152600260209081528282203383529052819020549051600162b5317b60e01b0319815260048101919091526024016103f5565b6040808301516001600160a01b0390811660009081526002602090815283822082549093168252919091529081208054839290610641908490610b86565b9091555050604082015161065490610984565b8082606001516106649190610b86565b6040808401516001600160a01b03166000908152600260209081528282203383529052908120805490919061069a908490610b0c565b909155505060a082015160808301516001600160a01b03166000908152600260209081526040808320338452909152812080549091906106db908490610b86565b909155505060a082015160808301516001600160a01b0390811660009081526002602090815260408083208288015190941683529290529081208054909190610725908490610b0c565b909155505060608201516040808401516001600160a01b0390811660009081526002602090815283822081880151909316825291909152908120805490919061076f908490610b86565b90915550508151600090815260056020908152604091829020805460ff19166001179055835181850151838601516060808801516080808a015160a0808c01518a519889526001600160a01b039788169989019990995233998801999099529385169286019290925290840152169281019290925260c08201524260e08201527f956770d55fc7a2542f46570389aa90df7aab3071a636caa26724b13d4617f01c906101000160405180910390a1505050565b61082c8233610957565b81111561084c576040516311ed860f60e11b815260040160405180910390fd5b60065461085a906001610b86565b60068181556040805160e0810182528381523360208083018281526001600160a01b038b8116858701908152606086018c81528b83166080880190815260a088018c81524260c08a0181815260009d8e526003988990529c8b902099518a55955160018a0180549187166001600160a01b0319928316179055935160028a018054918716918616919091179055915195880195909555935160048701805491909316911617905590516005840155945191840191909155915490517f9d33853d43e3607b4cc01fdc78338ff2dca6fef7db9232dae6d3eb55fbc3b1099361094993918991899189918991610b48565b60405180910390a150505050565b6001600160a01b038083166000908152600260209081526040808320938516835292905220545b92915050565b6001600160a01b0381811660008181526002602090815260408083208354861684529091528082208054908390559154905163a9059cbb60e01b815293166004840152602483018190529163a9059cbb906044016020604051808303816000875af11580156109f7573d6000803e3d6000fd5b505050506040513d601f19601f82011682018060405250810190610a1b9190610b1f565b505050565b80356001600160a01b0381168114610a3757600080fd5b919050565b60008060408385031215610a4f57600080fd5b610a5883610a20565b946020939093013593505050565b600060208284031215610a7857600080fd5b5035919050565b60008060008060808587031215610a9557600080fd5b610a9e85610a20565b935060208501359250610ab360408601610a20565b9396929550929360600135925050565b60008060408385031215610ad657600080fd5b610adf83610a20565b9150610aed60208401610a20565b90509250929050565b634e487b7160e01b600052601160045260246000fd5b8181038181111561097e5761097e610af6565b600060208284031215610b3157600080fd5b81518015158114610b4157600080fd5b9392505050565b9687526001600160a01b03958616602088015293851660408701526060860192909252909216608084015260a083019190915260c082015260e00190565b8082018082111561097e5761097e610af6565b808202811582820484141761097e5761097e610af6565b600082610bcd57634e487b7160e01b600052601260045260246000fd5b50049056fea26469706673582212208d5e6145dc42b5994f1730b36bdf66e7aaecebdbcd97fac75fce6a93e220c54c64736f6c63430008150033","linkReferences":{}},"methodIdentifiers":{"cancelOrder(uint256)":"514fcac7","depositTokens(address,uint256)":"66168bd7","depositedAmount(address,address)":"e0c32ec4","doesThisOrderCancelled(uint256)":"c9885295","doesThisOrderExcuted(uint256)":"849febf2","fillOrder(uint256)":"67b830ad","makeOrder(address,uint256,address,uint256)":"9a5c90aa","withdrawTokens(address,uint256)":"06b091f9"},"id":30}